:100000000C9463000C948B000C948B000C948B006C
:100010000C948B000C948B000C948B000C94C203FA
:100020000C948B000C948B000C948B000C948B0024
:100030000C948B000C948B000C948B000C948B0014
:100040000C9476040C948B000C9444040C941E04C1
:100050000C948B000C948B000C948B000C948B00F4
:100060000C948B000C948B000000000024002700EF
:100070002A000000000023002600290000000008DC
:10008000000201000003040700000000000000005F
:10009000010204081020408001020408102001021F
:1000A0000408102000000000250028002B00040494
:1000B0000404040404040202020202020303030310
:1000C00003030200B40911241FBECFEFD8E0DEBF46
:1000D000CDBF11E0A0E0B1E0E6E1F4E102C005909F
:1000E0000D92A037B107D9F722E0A0E7B1E001C037
:1000F0001D92A932B207E1F710E0C3E6D0E004C0D8
:100100002197FE010E94030AC236D107C9F70E9457
:10011000C0040C94090A0C940000AF92BF92CF92D5
:10012000DF92EF92FF920F931F93CF93DF936C01B7
:100130007B018B01040F151FEB015E01AE18BF0898
:10014000C017D10759F06991D601ED91FC9101904A
:10015000F081E02DC6010995892B79F7C501DF9162
:10016000CF911F910F91FF90EF90DF90CF90BF90B4
:10017000AF900895FC01538D448D252F30E0842FDE
:1001800090E0821B930B541710F0CF9608950197BF
:100190000895FC01918D828D981761F0A28DAE0FAC
:1001A000BF2FB11D5D968C91928D9F5F9F73928F33
:1001B00090E008958FEF9FEF0895FC01918D828D5F
:1001C000981731F0828DE80FF11D858D90E008952C
:1001D0008FEF9FEF0895FC01918D228D892F90E084
:1001E000805C9F4F821B91098F73992708958BE73D
:1001F00091E00E94EB0021E0892B09F420E0822F9E
:10020000089580E090E0892B29F00E94F700811189
:100210000C9400000895FC01A48DA80FB92FB11D06
:10022000A35ABF4F2C91848D90E001968F7399272C
:10023000848FA689B7892C93A089B1898C9183700A
:1002400080648C93938D848D981306C00288F38903
:10025000E02D80818F7D80830895EF92FF920F9330
:100260001F93CF93DF93EC0181E0888F9B8D8C8D62
:1002700098131AC0E889F989808185FF15C09FB756
:10028000F894EE89FF896083E889F9898081837019
:10029000806480839FBF81E090E0DF91CF911F91C8
:1002A0000F91FF90EF900895F62E0B8D10E00F5FE9
:1002B0001F4F0F731127E02E8C8D8E110CC00FB6BF
:1002C00007FCFACFE889F989808185FFF5CFCE0157
:1002D0000E940B01F1CFEB8DEC0FFD2FF11DE35AC6
:1002E000FF4FF0829FB7F8940B8FEA89FB898081DA
:1002F0008062CFCFCF93DF93EC01888D8823B9F054
:10030000AA89BB89E889F9898C9185FD03C0808120
:1003100086FD0DC00FB607FCF7CF8C9185FFF2CF9D
:10032000808185FFEDCFCE010E940B01E9CFDF91E7
:10033000CF910895833081F028F4813099F0823094
:10034000A9F008958730A9F08830C9F08430B1F45D
:10035000809180008F7D03C0809180008F77809393
:100360008000089584B58F7784BD089584B58F7D0E
:10037000FBCF8091B0008F778093B000089580917B
:10038000B0008F7DF9CFCF93DF93EEE7F0E084915B
:10039000E2E9F0E0D491E0EBF0E0C491CC23A1F0ED
:1003A00081110E949A01EC2FF0E0EE0FFF1FEE5832
:1003B000FF4FA591B491EC91ED2381E090E009F419
:1003C00080E0DF91CF91089580E090E0FACF1F9315
:1003D000CF93DF93282F30E0F901E458FF4F849149
:1003E000F901E057FF4FD491F901E255FF4FC49155
:1003F000CC23A9F0162F81110E949A01EC2FF0E076
:10040000EE0FFF1FEC55FF4FA591B4918FB7F894F5
:10041000EC91111108C0D095DE23DC938FBFDF91E2
:10042000CF911F910895DE2BF8CF9091030189138E
:100430000BC0E2ECF0E0E4919FEF90930301E13018
:1004400049F028F0E23061F060E00C94E70110928E
:100450006E00FACF90916F009D7F90936F00F4CF64
:10046000909170009D7F9093700091E09093B00008
:100470009091B100987F94609093B1001092B30076
:10048000E3CFCF93DF9390E0FC01E057FF4F24913F
:1004900082559F4FFC0184918823D1F090E0880F12
:1004A000991FFC01E859FF4FA591B491FC01EC554F
:1004B000FF4FC591D491623071F49FB7F8943C918D
:1004C000822F809583238C93E8812E2B28839FBFD6
:1004D000DF91CF9108958FB7F894EC912E2B2C9348
:1004E0008FBFF6CFCF9380910301883021F08F3FEB
:1004F00059F1CF910895E2ECF0E0C491C7FDF9CF36
:1005000061E088E00E944102CC2309F48BC0C23034
:1005100009F09FC08091B100887F85608093B10011
:100520008BE98093B3008FEF9FEFDC0180931D0276
:1005300090931E02A0931F02B0932002809170003E
:10054000826080937000D5CF88E080930301E2EC55
:10055000F0E0C491CF3F69F2C13021F150F0C230D8
:1005600009F43EC0C7FDC5CF61E088E00E944102AA
:10057000CECF14BC15BC84B5826084BD85B58160C6
:1005800085BDE6EBF0E0E491F0E0EE0FFF1FEC55E7
:10059000FF4F85919491E8E9F0E0E491E0931C022B
:1005A000C0E0AECF10928000109281008091810057
:1005B00088608093810080918100816080938100B8
:1005C000E6EBF0E0E491F0E0EE0FFF1FEC55FF4F9B
:1005D00085919491E8E9F0E0E491E0931B0290CFDB
:1005E0001092B0001092B1008091B00082608093B0
:1005F000B0008091B10081608093B100E6EBF0E043
:10060000E491F0E0EE0FFF1FEC55FF4F85919491C0
:1006100090931A0280931902E8E9F0E0E491E093E4
:1006200018026ECF85B5887F846085BD8DE487BD57
:100630008FEF9FEFDC018093250290932602A09319
:100640002702B093280280916E00826080936E0032
:1006500050CFC130E9F480918100887F8160809320
:1006600081008FE19EE490938900809388008FEF52
:100670009FEFDC018093210290932202A09323023A
:10068000B093240280916F00826080936F0031CF1D
:10069000C23021F0C1112DCF8FE1C9CF8FE141CF01
:1006A0003FB7F8948091750190917601A091770100
:1006B000B091780126B5A89B05C02F3F19F001968F
:1006C000A11DB11D3FBFBA2FA92F982F8827BC01AC
:1006D000CD01620F711D811D911D42E0660F771FD4
:1006E000881F991F4A95D1F708958F929F92AF92D4
:1006F000BF92CF92DF92EF92FF924B015C010E947A
:1007000050036B017C010E9450036C197D098E0916
:100710009F09683E734081059105A8F321E0821A84
:100720009108A108B10888EEC80E83E0D81EE11C2C
:10073000F11C81149104A104B10429F7FF90EF90FA
:10074000DF90CF90BF90AF909F908F900895FC0165
:1007500001900020E9F73197AF01481B590BBC010C
:100760008BE791E00C948D00CF93DF930E94A70359
:10077000EC0186E191E00E94A7038C0F9D1FDF91A1
:10078000CF9108951F920F920FB60F9211242F93BD
:100790003F934F935F936F937F938F939F93AF9309
:1007A000BF93EF93FF9380911D0290911E02A09141
:1007B0001F02B0912002892B8A2B8B2BD1F19091B3
:1007C0001802E0911902F0911A0280818927808332
:1007D00080911D0290911E02A0911F02B0912002F3
:1007E000181619061A061B069CF480911D0290919A
:1007F0001E02A0911F02B09120020197A109B10928
:1008000080931D0290931E02A0931F02B0932002BA
:10081000FF91EF91BF91AF919F918F917F916F91D8
:100820005F914F913F912F910F900FBE0F901F90AE
:100830001895809103010E941502EACF1F920F9232
:100840000FB60F9211242F933F934F935F936F93A3
:100850007F938F939F93AF93BF93EF93FF938BE718
:1008600091E00E940B01FF91EF91BF91AF919F9199
:100870008F917F916F915F914F913F912F910F9049
:100880000FBE0F901F9018951F920F920FB60F92E8
:1008900011242F938F939F93EF93FF93E0918B01FC
:1008A000F0918C018081E0919101F091920182FDA3
:1008B0001BC09081809194018F5F8F73209195016F
:1008C000821741F0E0919401F0E0E558FE4F958FDA
:1008D00080939401FF91EF919F918F912F910F90B1
:1008E0000FBE0F901F9018958081F4CF1F920F922A
:1008F0000FB60F9211242F933F938F939F93AF9333
:10090000BF938091710190917201A0917301B09198
:1009100074013091700123E0230F2D3758F50196B3
:10092000A11DB11D209370018093710190937201FC
:10093000A0937301B0937401809175019091760139
:10094000A0917701B09178010196A11DB11D80930E
:10095000750190937601A0937701B0937801BF91D0
:10096000AF919F918F913F912F910F900FBE0F905C
:100970001F90189526E8230F0296A11DB11DD2CF16
:10098000CF93DF93CDB7DEB7A1970FB6F894DEBF54
:100990000FBECDBF789484B5826084BD84B581607C
:1009A00084BD85B5826085BD85B5816085BD80913A
:1009B0006E00816080936E001092810080918100B2
:1009C00082608093810080918100816080938100AA
:1009D000809180008160809380008091B10084606C
:1009E0008093B1008091B00081608093B0008091CD
:1009F0007A00846080937A0080917A00826080938C
:100A00007A0080917A00816080937A0080917A00E8
:100A1000806880937A001092C100E0918B01F09180
:100A20008C0182E08083E0918701F091880110823F
:100A3000E0918901F0918A018FEC808310929301FB
:100A4000E0918F01F091900186E08083E0918D012B
:100A5000F0918E01808180618083E0918D01F09121
:100A60008E01808188608083E0918D01F0918E01FC
:100A7000808180688083E0918D01F0918E0180817A
:100A80008F7D808362E082E00E94410261E083E02A
:100A90000E94410261E084E00E94410261E085E041
:100AA0000E94410261E086E00E94410261E087E02D
:100AB0000E94410261E088E00E94410261E089E019
:100AC0000E94410261E08AE00E94410261E08BE005
:100AD0000E94410261E08CE00E94410261E08DE0F1
:100AE0000E9441028AE0482E512C612C712C90E02A
:100AF000C92E90E0D92E22242394312CFF24F39484
:100B00000E94C301892B09F045C08091020188230E
:100B100071F08091790190917A01893091050CF4FE
:100B200039C230927A0120927901109202018090AC
:100B3000790190907A01092C000CAA08BB08B7FE35
:100B40002FC26DE28BE791E00E942D01222733270F
:100B5000A901281939094A095B0919A28E010F5DFB
:100B60001F4FCA01B901A30192010E94E109605D12
:100B7000F80162938F01211531054105510589F76F
:100B80000115110519F0C8010E94A70386E191E043
:100B90000E94A7030E94C301019711F4F092020181
:100BA0000091790110917A010115110509F00EC229
:100BB00013E061E0812F0E94E70164E670E080E0CD
:100BC00090E00E94750360E0812F0E94E7011F5FA3
:100BD0001E3079F78091790190917A01069709F09A
:100BE000E3C080910001882331F086E391E00E9408
:100BF000B403109200018091010181110DC00E9487
:100C0000720264E670E080E090E00E94750388E084
:100C10000E941502F092010161E083E00E94E70169
:100C200069E170E080E090E00E94750360E083E09D
:100C30000E94E70169E170E080E090E00E947503A6
:100C400061E084E00E94E70169E170E080E090E00B
:100C50000E94750360E084E00E94E70169E170E0B2
:100C600080E090E00E94750361E085E00E94E7016A
:100C700069E170E080E090E00E94750360E085E04B
:100C80000E94E70169E170E080E090E00E94750356
:100C900061E086E00E94E70169E170E080E090E0B9
:100CA0000E94750360E086E00E94E70169E170E060
:100CB00080E090E00E94750361E087E00E94E70118
:100CC00069E170E080E090E00E94750360E087E0F9
:100CD0000E94E70169E170E080E090E00E94750306
:100CE00061E089E00E94E70169E170E080E090E066
:100CF0000E94750360E089E00E94E70169E170E00D
:100D000080E090E00E94750361E08AE00E94E701C4
:100D100069E170E080E090E00E94750360E08AE0A5
:100D20000E94E70169E170E080E090E00E947503B5
:100D300061E08BE00E94E70169E170E080E090E013
:100D40000E94750360E08BE00E94E70169E170E0BA
:100D500080E090E00E94750361E08CE00E94E70172
:100D600069E170E080E090E00E94750360E08CE053
:100D70000E94E70169E170E080E090E00E94750365
:100D800061E08DE00E94E70169E170E080E090E0C1
:100D90000E94750360E08DE00E94E70169E170E068
:100DA00080E090E00E9475038091790190917A0132
:100DB000099709F0E3C080910001882331F083E5B1
:100DC00091E00E94B40310920001809101018823F8
:100DD00069F00E94720264E670E080E090E00E9498
:100DE000750388E00E9415021092010161E083E022
:100DF0000E94E7016CE070E080E090E00E947503E3
:100E000060E083E00E94E7016CE070E080E090E049
:100E10000E94750361E084E00E94E7016CE070E0ED
:100E200080E090E00E94750360E084E00E94E701AA
:100E30006CE070E080E090E00E94750361E085E086
:100E40000E94E7016CE070E080E090E00E94750392
:100E500060E085E00E94E7016CE070E080E090E0F7
:100E60000E94750361E086E00E94E7016CE070E09B
:100E700080E090E00E94750360E086E00E94E70158
:100E80006CE070E080E090E00E94750361E087E034
:100E90000E94E7016CE070E080E090E00E94750342
:100EA00060E087E00E94E7016CE070E080E090E0A5
:100EB0000E94750361E089E00E94E7016CE070E048
:100EC00080E090E00E94750360E089E00E94E70105
:100ED0006CE070E080E090E00E94750361E08AE0E1
:100EE0000E94E7016CE070E080E090E00E947503F2
:100EF00060E08AE00E94E7016CE070E080E090E052
:100F00000E94750361E08BE00E94E7016CE070E0F5
:100F100080E090E00E94750360E08BE00E94E701B2
:100F20006CE070E080E090E00E94750361E08CE08E
:100F30000E94E7016CE070E080E090E00E947503A1
:100F400060E08CE00E94E7016CE070E080E090E0FF
:100F50000E94750361E08DE00E94E7016CE070E0A3
:100F600080E090E00E94750360E08DE00E94E70160
:100F70006CE070E080E090E00E947503C114D10441
:100F800009F4BECD0E94F700882309F4B9CD0E9470
:100F90000000B6CD019690937A0180937901C5CD7A
:100FA000A501940119A28E010F5D1F4FCA01B9015D
:100FB000A30192010E94E109605DF80162938F0133
:100FC000211531054105510589F7DACD01301105AB
:100FD00039F00430110521F00730110509F066C021
:100FE00080910101882381F00130110569F40E948C
:100FF000720264E670E080E090E00E94750388E091
:101000000E9415021092010180910101811110C00E
:101010000430110569F40E94720264E670E080E019
:1010200090E00E94750388E00E941502F092010191
:1010300080910101882381F00730110569F40E9435
:10104000720264E670E080E090E00E94750388E040
:101050000E9415021092010161E083E00E94E70105
:1010600061E084E00E94E70161E085E00E94E70121
:1010700061E086E00E94E70161E087E00E94E7010D
:1010800061E089E00E94E70161E08AE00E94E701F7
:1010900061E08BE00E94E70161E08CE00E94E701E3
:1010A00061E08DE00E94E701F0920001023011053D
:1010B00039F00530110521F00830110509F04AC159
:1010C00080910101811110C00230110569F40E9464
:1010D000720264E670E080E090E00E94750388E0B0
:1010E0000E941502F092010180910101882381F094
:1010F0000530110569F40E94720264E670E080E038
:1011000090E00E94750388E00E9415021092010190
:1011100080910101811110C00830110569F40E940D
:10112000720264E670E080E090E00E94750388E05F
:101130000E941502F092010160E083E00E94E70145
:1011400060E084E00E94E70160E085E00E94E70142
:1011500060E086E00E94E70160E087E00E94E7012E
:1011600060E089E00E94E70160E08AE00E94E70118
:1011700060E08BE00E94E70160E08CE00E94E70104
:1011800060E08DE00E94E701F0920001033011055C
:1011900009F020CD89E191E00E94B4031092000192
:1011A00080910101882369F00E94720264E670E078
:1011B00080E090E00E94750388E00E941502109282
:1011C000010161E083E00E94E70162E370E080E0FA
:1011D00090E00E94750360E083E00E94E70162E313
:1011E00070E080E090E00E94750361E084E00E947E
:1011F000E70162E370E080E090E00E94750360E048
:1012000084E00E94E70162E370E080E090E00E94E9
:10121000750361E085E00E94E70162E370E080E031
:1012200090E00E94750360E085E00E94E70162E3C0
:1012300070E080E090E00E94750361E086E00E942B
:10124000E70162E370E080E090E00E94750360E0F7
:1012500086E00E94E70162E370E080E090E00E9497
:10126000750361E087E00E94E70162E370E080E0DF
:1012700090E00E94750360E087E00E94E70162E36E
:1012800070E080E090E00E94750361E089E00E94D8
:10129000E70162E370E080E090E00E94750360E0A7
:1012A00089E00E94E70162E370E080E090E00E9444
:1012B000750361E08AE00E94E70162E370E080E08C
:1012C00090E00E94750360E08AE00E94E70162E31B
:1012D00070E080E090E00E94750361E08BE00E9486
:1012E000E70162E370E080E090E00E94750360E057
:1012F0008BE00E94E70162E370E080E090E00E94F2
:10130000750361E08CE00E94E70162E370E080E039
:1013100090E00E94750360E08CE00E94E70162E3C8
:1013200070E080E090E00E94750361E08DE00E9433
:10133000E70162E370E080E090E00E94750360E006
:101340008DE00E94E70162E370E080E090E00E949F
:10135000750340CC0330110509F03CCC80910001AD
:10136000882309F41DCF16CFEBE7F1E01382128238
:1013700088EE93E0A0E0B0E084839583A683B783F2
:1013800088E091E09183808385EC90E09587848765
:1013900084EC90E09787868780EC90E0918B808B3F
:1013A00081EC90E0938B828B82EC90E0958B848B28
:1013B00086EC90E0978B868B118E128E138E148E96
:1013C0000895A1E21A2EAA1BBB1BFD010DC0AA1F86
:1013D000BB1FEE1FFF1FA217B307E407F50720F09E
:1013E000A21BB30BE40BF50B661F771F881F991F19
:1013F0001A9469F760957095809590959B01AC0162
:10140000BD01CF010895EE0FFF1F0590F491E02D6F
:061410000994F894FFCFDF
:10141600010101FF000000002D018D00BA007A01D4
:10142600EB00C900DD000D0A004661737465722089
:101436005832202843757272656E74205370656544
:10144600642058322900466173746572205834202E
:101456002843757272656E742053706565642058F2
:101466003429004661737465722058382028437504
:101476007272656E74205370656564205838290051
:00000001FF
